{
  "contractName": "A",
  "abi": [
    {
      "inputs": [],
      "name": "value",
      "outputs": [
        {
          "internalType": "uint256",
          "name": "",
          "type": "uint256"
        }
      ],
      "stateMutability": "view",
      "type": "function"
    },
    {
      "inputs": [
        {
          "internalType": "uint256",
          "name": "_value",
          "type": "uint256"
        }
      ],
      "name": "setValue",
      "outputs": [],
      "stateMutability": "nonpayable",
      "type": "function"
    }
  ],
  "bytecode": "0x608060405234801561000f575f80fd5b506101268061001d5f395ff3fe6080604052348015600e575f80fd5b50600436106030575f3560e01c80633fa4f2451460345780635524107714604e575b5f80fd5b603a6066565b60405160459190608a565b60405180910390f35b606460048036038101906060919060ca565b606b565b005b5f5481565b805f8190555050565b5f819050919050565b6084816074565b82525050565b5f602082019050609b5f830184607d565b92915050565b5f80fd5b60ac816074565b811460b5575f80fd5b50565b5f8135905060c48160a5565b92915050565b5f6020828403121560dc5760db60a1565b5b5f60e78482850160b8565b9150509291505056fea2646970667358221220d4c05cccb5cb840fc1cafbeb59951bb4ff64279bef161d2bea62a50bdf31b3d064736f6c63430008150033",
  "immutableReferences": {},
  "source": "// SPDX-License-Identifier: MIT\n\npragma solidity ^0.8.19;\n\nimport \"./Address.sol\";\n\ncontract A {\n    using Address for address;\n    uint256 public value;\n\n    function setValue(uint256 _value) public {\n        value = _value;\n    }\n}\n\ncontract B {\n    using Address for address;\n    uint256 public value;\n\n    function setAValue(address aAddress, uint256 _value) public {\n        aAddress.functionCall(abi.encodeWithSignature(\"setValue(uint256)\", _value));\n    }\n    \n    function setAValueByDelegatecall(address aAddress, uint256 _value) public {\n        aAddress.delegatecall(abi.encodeWithSignature(\"setValue(uint256)\", _value));\n    }\n}\n",
  "sourcePath": "/Users/m/Kleros/basex-smart-contract/contracts/UtilTestingDelegateCall.sol",
  "compiler": {
    "name": "solc",
    "version": "0.8.21+commit.d9974bed.Emscripten.clang"
  },
  "schemaVersion": "3.4.14",
  "updatedAt": "2023-09-28T08:06:57.715Z",
  "devdoc": {
    "kind": "dev",
    "methods": {},
    "version": 1
  },
  "userdoc": {
    "kind": "user",
    "methods": {},
    "version": 1
  }
}