{
  "contractName": "B",
  "abi": [
    {
      "inputs": [
        {
          "internalType": "address",
          "name": "target",
          "type": "address"
        }
      ],
      "name": "AddressEmptyCode",
      "type": "error"
    },
    {
      "inputs": [
        {
          "internalType": "address",
          "name": "account",
          "type": "address"
        }
      ],
      "name": "AddressInsufficientBalance",
      "type": "error"
    },
    {
      "inputs": [],
      "name": "FailedInnerCall",
      "type": "error"
    },
    {
      "inputs": [],
      "name": "value",
      "outputs": [
        {
          "internalType": "uint256",
          "name": "",
          "type": "uint256"
        }
      ],
      "stateMutability": "view",
      "type": "function"
    },
    {
      "inputs": [
        {
          "internalType": "address",
          "name": "aAddress",
          "type": "address"
        },
        {
          "internalType": "uint256",
          "name": "_value",
          "type": "uint256"
        }
      ],
      "name": "setAValue",
      "outputs": [],
      "stateMutability": "nonpayable",
      "type": "function"
    },
    {
      "inputs": [
        {
          "internalType": "address",
          "name": "aAddress",
          "type": "address"
        },
        {
          "internalType": "uint256",
          "name": "_value",
          "type": "uint256"
        }
      ],
      "name": "setAValueByDelegatecall",
      "outputs": [],
      "stateMutability": "nonpayable",
      "type": "function"
    }
  ],
  "bytecode": "0x608060405234801561000f575f80fd5b506106128061001d5f395ff3fe608060405234801561000f575f80fd5b506004361061003f575f3560e01c80633ede78fb146100435780633fa4f2451461005f578063974ddc261461007d575b5f80fd5b61005d600480360381019061005891906104cc565b610099565b005b61006761018f565b6040516100749190610519565b60405180910390f35b610097600480360381019061009291906104cc565b610194565b005b8173ffffffffffffffffffffffffffffffffffffffff16816040516024016100c19190610519565b6040516020818303038152906040527f55241077000000000000000000000000000000000000000000000000000000007bffffffffffffffffffffffffffffffffffffffffffffffffffffffff19166020820180517bffffffffffffffffffffffffffffffffffffffffffffffffffffffff838183161783525050505060405161014b919061059e565b5f60405180830381855af49150503d805f8114610183576040519150601f19603f3d011682016040523d82523d5f602084013e610188565b606091505b5050505050565b5f5481565b61024a816040516024016101a89190610519565b6040516020818303038152906040527f55241077000000000000000000000000000000000000000000000000000000007bffffffffffffffffffffffffffffffffffffffffffffffffffffffff19166020820180517bffffffffffffffffffffffffffffffffffffffffffffffffffffffff83818316178352505050508373ffffffffffffffffffffffffffffffffffffffff1661024f90919063ffffffff16565b505050565b606061025f83835f610267610299565b905092915050565b6040517f1425ea4200000000000000000000000000000000000000000000000000000000815260040160405180910390fd5b6060824710156102e057306040517fcd7860590000000000000000000000000000000000000000000000000000000081526004016102d791906105c3565b60405180910390fd5b5f808673ffffffffffffffffffffffffffffffffffffffff168587604051610308919061059e565b5f6040518083038185875af1925050503d805f8114610342576040519150601f19603f3d011682016040523d82523d5f602084013e610347565b606091505b509150915061035887838387610364565b92505050949350505050565b606083156103d8575f8351036103d0575f8573ffffffffffffffffffffffffffffffffffffffff163b036103cf57846040517f9996b3150000000000000000000000000000000000000000000000000000000081526004016103c691906105c3565b60405180910390fd5b5b8290506103e3565b6103e283836103eb565b5b949350505050565b5f825111156103fd5781518083602001fd5b6104098163ffffffff16565b6040517f1425ea4200000000000000000000000000000000000000000000000000000000815260040160405180910390fd5b5f80fd5b5f73ffffffffffffffffffffffffffffffffffffffff82169050919050565b5f6104688261043f565b9050919050565b6104788161045e565b8114610482575f80fd5b50565b5f813590506104938161046f565b92915050565b5f819050919050565b6104ab81610499565b81146104b5575f80fd5b50565b5f813590506104c6816104a2565b92915050565b5f80604083850312156104e2576104e161043b565b5b5f6104ef85828601610485565b9250506020610500858286016104b8565b9150509250929050565b61051381610499565b82525050565b5f60208201905061052c5f83018461050a565b92915050565b5f81519050919050565b5f81905092915050565b5f5b83811015610563578082015181840152602081019050610548565b5f8484015250505050565b5f61057882610532565b610582818561053c565b9350610592818560208601610546565b80840191505092915050565b5f6105a9828461056e565b915081905092915050565b6105bd8161045e565b82525050565b5f6020820190506105d65f8301846105b4565b9291505056fea264697066735822122075cfef038a4c7d054b695ed4ad9bca5a9e9d101c4cf055ac945859ee91ce963a64736f6c63430008150033",
  "immutableReferences": {},
  "source": "// SPDX-License-Identifier: MIT\n\npragma solidity ^0.8.19;\n\nimport \"./Address.sol\";\n\ncontract A {\n    using Address for address;\n    uint256 public value;\n\n    function setValue(uint256 _value) public {\n        value = _value;\n    }\n}\n\ncontract B {\n    using Address for address;\n    uint256 public value;\n\n    function setAValue(address aAddress, uint256 _value) public {\n        aAddress.functionCall(abi.encodeWithSignature(\"setValue(uint256)\", _value));\n    }\n    \n    function setAValueByDelegatecall(address aAddress, uint256 _value) public {\n        aAddress.delegatecall(abi.encodeWithSignature(\"setValue(uint256)\", _value));\n    }\n}\n",
  "sourcePath": "/Users/m/Kleros/basex-smart-contract/contracts/UtilTestingDelegateCall.sol",
  "compiler": {
    "name": "solc",
    "version": "0.8.21+commit.d9974bed.Emscripten.clang"
  },
  "schemaVersion": "3.4.14",
  "updatedAt": "2023-09-28T08:06:57.715Z",
  "devdoc": {
    "errors": {
      "AddressEmptyCode(address)": [
        {
          "details": "There's no code at `target` (it is not a contract)."
        }
      ],
      "AddressInsufficientBalance(address)": [
        {
          "details": "The ETH balance of the account is not enough to perform the operation."
        }
      ],
      "FailedInnerCall()": [
        {
          "details": "A call to an address target failed. The target may have reverted."
        }
      ]
    },
    "kind": "dev",
    "methods": {},
    "version": 1
  },
  "userdoc": {
    "kind": "user",
    "methods": {},
    "version": 1
  }
}