{
  "contractName": "String2Bytes32",
  "abi": [
    {
      "inputs": [
        {
          "internalType": "string",
          "name": "str",
          "type": "string"
        }
      ],
      "name": "stringToBytes32",
      "outputs": [
        {
          "internalType": "bytes32",
          "name": "",
          "type": "bytes32"
        }
      ],
      "stateMutability": "pure",
      "type": "function"
    }
  ],
  "bytecode": "0x608060405234801561000f575f80fd5b5061026d8061001d5f395ff3fe608060405234801561000f575f80fd5b5060043610610029575f3560e01c8063cfb519281461002d575b5f80fd5b610047600480360381019061004291906101bf565b61005d565b604051610054919061021e565b60405180910390f35b5f808280519060200120905080915050919050565b5f604051905090565b5f80fd5b5f80fd5b5f80fd5b5f80fd5b5f601f19601f8301169050919050565b7f4e487b71000000000000000000000000000000000000000000000000000000005f52604160045260245ffd5b6100d18261008b565b810181811067ffffffffffffffff821117156100f0576100ef61009b565b5b80604052505050565b5f610102610072565b905061010e82826100c8565b919050565b5f67ffffffffffffffff82111561012d5761012c61009b565b5b6101368261008b565b9050602081019050919050565b828183375f83830152505050565b5f61016361015e84610113565b6100f9565b90508281526020810184848401111561017f5761017e610087565b5b61018a848285610143565b509392505050565b5f82601f8301126101a6576101a5610083565b5b81356101b6848260208601610151565b91505092915050565b5f602082840312156101d4576101d361007b565b5b5f82013567ffffffffffffffff8111156101f1576101f061007f565b5b6101fd84828501610192565b91505092915050565b5f819050919050565b61021881610206565b82525050565b5f6020820190506102315f83018461020f565b9291505056fea264697066735822122087facf15db5dc97071a9fa647ecb2384f61bbdb30cd289beff6a693db9b7af4164736f6c63430008150033",
  "immutableReferences": {},
  "source": "// SPDX-License-Identifier: MIT\n\npragma solidity ^0.8.19;\n\n// This is to quickly convert JSONIPFS string into Bytes32\ncontract String2Bytes32 {\n    function stringToBytes32(string memory str) public pure returns (bytes32) {\n        bytes32 result = keccak256(bytes(str));\n        return result;\n    }\n}",
  "sourcePath": "/Users/m/Kleros/basex-smart-contract/contracts/UtilKeccakString.sol",
  "compiler": {
    "name": "solc",
    "version": "0.8.21+commit.d9974bed.Emscripten.clang"
  },
  "schemaVersion": "3.4.14",
  "updatedAt": "2023-09-28T08:06:57.714Z",
  "devdoc": {
    "kind": "dev",
    "methods": {},
    "version": 1
  },
  "userdoc": {
    "kind": "user",
    "methods": {},
    "version": 1
  }
}