{
  "contractName": "BaseX",
  "abi": [
    {
      "inputs": [
        {
          "internalType": "address",
          "name": "target",
          "type": "address"
        }
      ],
      "name": "AddressEmptyCode",
      "type": "error"
    },
    {
      "inputs": [],
      "name": "FailedInnerCall",
      "type": "error"
    },
    {
      "anonymous": false,
      "inputs": [
        {
          "indexed": false,
          "internalType": "string",
          "name": "orgGuid",
          "type": "string"
        },
        {
          "indexed": false,
          "internalType": "string",
          "name": "orgName",
          "type": "string"
        },
        {
          "indexed": false,
          "internalType": "string",
          "name": "itemGuid",
          "type": "string"
        },
        {
          "indexed": false,
          "internalType": "uint256",
          "name": "itemIndex",
          "type": "uint256"
        },
        {
          "indexed": false,
          "internalType": "string",
          "name": "itemName",
          "type": "string"
        },
        {
          "indexed": false,
          "internalType": "string",
          "name": "itemJSONIPFS",
          "type": "string"
        },
        {
          "indexed": false,
          "internalType": "uint256",
          "name": "PVT",
          "type": "uint256"
        },
        {
          "indexed": false,
          "internalType": "uint256",
          "name": "NVT",
          "type": "uint256"
        }
      ],
      "name": "ItemAdded",
      "type": "event"
    },
    {
      "anonymous": false,
      "inputs": [
        {
          "indexed": false,
          "internalType": "string",
          "name": "orgGuid",
          "type": "string"
        },
        {
          "indexed": false,
          "internalType": "string",
          "name": "name",
          "type": "string"
        },
        {
          "indexed": false,
          "internalType": "address",
          "name": "klerosAddress",
          "type": "address"
        }
      ],
      "name": "OrganisationAddedToKleros",
      "type": "event"
    },
    {
      "anonymous": false,
      "inputs": [
        {
          "indexed": false,
          "internalType": "string",
          "name": "orgGuid",
          "type": "string"
        },
        {
          "indexed": false,
          "internalType": "string",
          "name": "name",
          "type": "string"
        },
        {
          "indexed": false,
          "internalType": "address",
          "name": "klerosAddress",
          "type": "address"
        }
      ],
      "name": "OrganisationDeployed",
      "type": "event"
    },
    {
      "anonymous": false,
      "inputs": [
        {
          "indexed": false,
          "internalType": "string",
          "name": "orgGuid",
          "type": "string"
        },
        {
          "indexed": false,
          "internalType": "string",
          "name": "name",
          "type": "string"
        },
        {
          "indexed": false,
          "internalType": "address",
          "name": "payoutWallet",
          "type": "address"
        }
      ],
      "name": "PayoutWalletAssigned",
      "type": "event"
    },
    {
      "anonymous": false,
      "inputs": [
        {
          "indexed": false,
          "internalType": "string",
          "name": "itemGuid",
          "type": "string"
        },
        {
          "indexed": false,
          "internalType": "uint256",
          "name": "PVT",
          "type": "uint256"
        },
        {
          "indexed": false,
          "internalType": "uint256",
          "name": "NVT",
          "type": "uint256"
        }
      ],
      "name": "TokensMinted",
      "type": "event"
    },
    {
      "inputs": [],
      "name": "NVT",
      "outputs": [
        {
          "internalType": "contract IERC20",
          "name": "",
          "type": "address"
        }
      ],
      "stateMutability": "view",
      "type": "function",
      "constant": true
    },
    {
      "inputs": [],
      "name": "PVT",
      "outputs": [
        {
          "internalType": "contract IERC20",
          "name": "",
          "type": "address"
        }
      ],
      "stateMutability": "view",
      "type": "function",
      "constant": true
    },
    {
      "inputs": [],
      "name": "admin",
      "outputs": [
        {
          "internalType": "address",
          "name": "",
          "type": "address"
        }
      ],
      "stateMutability": "view",
      "type": "function",
      "constant": true
    },
    {
      "inputs": [
        {
          "internalType": "string",
          "name": "",
          "type": "string"
        }
      ],
      "name": "guidLookup",
      "outputs": [
        {
          "internalType": "string",
          "name": "",
          "type": "string"
        }
      ],
      "stateMutability": "view",
      "type": "function",
      "constant": true
    },
    {
      "inputs": [
        {
          "internalType": "string",
          "name": "",
          "type": "string"
        }
      ],
      "name": "itemGuidToIndex",
      "outputs": [
        {
          "internalType": "uint256",
          "name": "",
          "type": "uint256"
        }
      ],
      "stateMutability": "view",
      "type": "function",
      "constant": true
    },
    {
      "inputs": [
        {
          "internalType": "uint256",
          "name": "",
          "type": "uint256"
        }
      ],
      "name": "items",
      "outputs": [
        {
          "internalType": "string",
          "name": "itemGuid",
          "type": "string"
        },
        {
          "internalType": "string",
          "name": "targetGuid",
          "type": "string"
        },
        {
          "internalType": "uint256",
          "name": "orgIndex",
          "type": "uint256"
        },
        {
          "internalType": "string",
          "name": "JSONIPFS",
          "type": "string"
        },
        {
          "internalType": "uint256",
          "name": "PVT",
          "type": "uint256"
        },
        {
          "internalType": "uint256",
          "name": "NVT",
          "type": "uint256"
        },
        {
          "internalType": "bool",
          "name": "approvedToKlerosAndTokensMinted",
          "type": "bool"
        }
      ],
      "stateMutability": "view",
      "type": "function",
      "constant": true
    },
    {
      "inputs": [],
      "name": "itemsLength",
      "outputs": [
        {
          "internalType": "uint256",
          "name": "",
          "type": "uint256"
        }
      ],
      "stateMutability": "view",
      "type": "function",
      "constant": true
    },
    {
      "inputs": [],
      "name": "klerosFactory",
      "outputs": [
        {
          "internalType": "contract LightGTCRFactory",
          "name": "",
          "type": "address"
        }
      ],
      "stateMutability": "view",
      "type": "function",
      "constant": true
    },
    {
      "inputs": [],
      "name": "klerosOrganisations",
      "outputs": [
        {
          "internalType": "contract KlerosList",
          "name": "",
          "type": "address"
        }
      ],
      "stateMutability": "view",
      "type": "function",
      "constant": true
    },
    {
      "inputs": [
        {
          "internalType": "string",
          "name": "",
          "type": "string"
        }
      ],
      "name": "orgGuidToIndex",
      "outputs": [
        {
          "internalType": "uint256",
          "name": "",
          "type": "uint256"
        }
      ],
      "stateMutability": "view",
      "type": "function",
      "constant": true
    },
    {
      "inputs": [
        {
          "internalType": "uint256",
          "name": "",
          "type": "uint256"
        }
      ],
      "name": "organisations",
      "outputs": [
        {
          "internalType": "string",
          "name": "orgGuid",
          "type": "string"
        },
        {
          "internalType": "string",
          "name": "name",
          "type": "string"
        },
        {
          "internalType": "string",
          "name": "JSONIPFS",
          "type": "string"
        },
        {
          "internalType": "address",
          "name": "klerosAddress",
          "type": "address"
        },
        {
          "internalType": "address",
          "name": "payoutWallet",
          "type": "address"
        },
        {
          "internalType": "uint256",
          "name": "PVT",
          "type": "uint256"
        },
        {
          "internalType": "uint256",
          "name": "NVT",
          "type": "uint256"
        },
        {
          "internalType": "uint256",
          "name": "PVThistorical",
          "type": "uint256"
        },
        {
          "internalType": "uint256",
          "name": "NVThistorical",
          "type": "uint256"
        }
      ],
      "stateMutability": "view",
      "type": "function",
      "constant": true
    },
    {
      "inputs": [],
      "name": "organisationsLength",
      "outputs": [
        {
          "internalType": "uint256",
          "name": "",
          "type": "uint256"
        }
      ],
      "stateMutability": "view",
      "type": "function",
      "constant": true
    },
    {
      "inputs": [
        {
          "internalType": "address",
          "name": "_klerosFactory",
          "type": "address"
        },
        {
          "internalType": "address",
          "name": "_klerosOrganisations",
          "type": "address"
        }
      ],
      "name": "initializer",
      "outputs": [],
      "stateMutability": "nonpayable",
      "type": "function"
    },
    {
      "inputs": [
        {
          "internalType": "string",
          "name": "orgGuid",
          "type": "string"
        },
        {
          "internalType": "string",
          "name": "name",
          "type": "string"
        },
        {
          "internalType": "string",
          "name": "registrationJSONIPFS",
          "type": "string"
        },
        {
          "internalType": "string",
          "name": "removingJSONIPFS",
          "type": "string"
        }
      ],
      "name": "deployOrganisation",
      "outputs": [
        {
          "internalType": "uint256",
          "name": "",
          "type": "uint256"
        },
        {
          "internalType": "address",
          "name": "",
          "type": "address"
        }
      ],
      "stateMutability": "nonpayable",
      "type": "function"
    },
    {
      "inputs": [
        {
          "internalType": "uint256",
          "name": "orgIndex",
          "type": "uint256"
        },
        {
          "internalType": "string",
          "name": "organisationJSONIPFS",
          "type": "string"
        }
      ],
      "name": "addOrganisationToTheList",
      "outputs": [],
      "stateMutability": "payable",
      "type": "function",
      "payable": true
    },
    {
      "inputs": [],
      "name": "getOrganisations",
      "outputs": [
        {
          "components": [
            {
              "internalType": "string",
              "name": "orgGuid",
              "type": "string"
            },
            {
              "internalType": "string",
              "name": "name",
              "type": "string"
            },
            {
              "internalType": "string",
              "name": "JSONIPFS",
              "type": "string"
            },
            {
              "internalType": "address",
              "name": "klerosAddress",
              "type": "address"
            },
            {
              "internalType": "address",
              "name": "payoutWallet",
              "type": "address"
            },
            {
              "internalType": "uint256",
              "name": "PVT",
              "type": "uint256"
            },
            {
              "internalType": "uint256",
              "name": "NVT",
              "type": "uint256"
            },
            {
              "internalType": "uint256",
              "name": "PVThistorical",
              "type": "uint256"
            },
            {
              "internalType": "uint256",
              "name": "NVThistorical",
              "type": "uint256"
            }
          ],
          "internalType": "struct Organisation[]",
          "name": "",
          "type": "tuple[]"
        }
      ],
      "stateMutability": "view",
      "type": "function",
      "constant": true
    },
    {
      "inputs": [
        {
          "internalType": "uint256",
          "name": "index",
          "type": "uint256"
        }
      ],
      "name": "getOrganisation",
      "outputs": [
        {
          "components": [
            {
              "internalType": "string",
              "name": "orgGuid",
              "type": "string"
            },
            {
              "internalType": "string",
              "name": "name",
              "type": "string"
            },
            {
              "internalType": "string",
              "name": "JSONIPFS",
              "type": "string"
            },
            {
              "internalType": "address",
              "name": "klerosAddress",
              "type": "address"
            },
            {
              "internalType": "address",
              "name": "payoutWallet",
              "type": "address"
            },
            {
              "internalType": "uint256",
              "name": "PVT",
              "type": "uint256"
            },
            {
              "internalType": "uint256",
              "name": "NVT",
              "type": "uint256"
            },
            {
              "internalType": "uint256",
              "name": "PVThistorical",
              "type": "uint256"
            },
            {
              "internalType": "uint256",
              "name": "NVThistorical",
              "type": "uint256"
            }
          ],
          "internalType": "struct Organisation",
          "name": "",
          "type": "tuple"
        }
      ],
      "stateMutability": "view",
      "type": "function",
      "constant": true
    },
    {
      "inputs": [],
      "name": "getItems",
      "outputs": [
        {
          "components": [
            {
              "internalType": "string",
              "name": "itemGuid",
              "type": "string"
            },
            {
              "internalType": "string",
              "name": "targetGuid",
              "type": "string"
            },
            {
              "internalType": "uint256",
              "name": "orgIndex",
              "type": "uint256"
            },
            {
              "internalType": "string",
              "name": "JSONIPFS",
              "type": "string"
            },
            {
              "internalType": "uint256",
              "name": "PVT",
              "type": "uint256"
            },
            {
              "internalType": "uint256",
              "name": "NVT",
              "type": "uint256"
            },
            {
              "internalType": "bool",
              "name": "approvedToKlerosAndTokensMinted",
              "type": "bool"
            }
          ],
          "internalType": "struct Item[]",
          "name": "",
          "type": "tuple[]"
        }
      ],
      "stateMutability": "view",
      "type": "function",
      "constant": true
    },
    {
      "inputs": [
        {
          "internalType": "uint256",
          "name": "index",
          "type": "uint256"
        }
      ],
      "name": "getItem",
      "outputs": [
        {
          "components": [
            {
              "internalType": "string",
              "name": "itemGuid",
              "type": "string"
            },
            {
              "internalType": "string",
              "name": "targetGuid",
              "type": "string"
            },
            {
              "internalType": "uint256",
              "name": "orgIndex",
              "type": "uint256"
            },
            {
              "internalType": "string",
              "name": "JSONIPFS",
              "type": "string"
            },
            {
              "internalType": "uint256",
              "name": "PVT",
              "type": "uint256"
            },
            {
              "internalType": "uint256",
              "name": "NVT",
              "type": "uint256"
            },
            {
              "internalType": "bool",
              "name": "approvedToKlerosAndTokensMinted",
              "type": "bool"
            }
          ],
          "internalType": "struct Item",
          "name": "",
          "type": "tuple"
        }
      ],
      "stateMutability": "view",
      "type": "function",
      "constant": true
    },
    {
      "inputs": [
        {
          "internalType": "uint256",
          "name": "orgIndex",
          "type": "uint256"
        },
        {
          "internalType": "address",
          "name": "payoutWallet",
          "type": "address"
        }
      ],
      "name": "assignPayoutWallet",
      "outputs": [],
      "stateMutability": "nonpayable",
      "type": "function"
    },
    {
      "inputs": [
        {
          "internalType": "string",
          "name": "itemGuid",
          "type": "string"
        },
        {
          "internalType": "string",
          "name": "itemName",
          "type": "string"
        },
        {
          "internalType": "string",
          "name": "targetGuid",
          "type": "string"
        },
        {
          "internalType": "uint256",
          "name": "orgIndex",
          "type": "uint256"
        },
        {
          "internalType": "string",
          "name": "JSONIPFS",
          "type": "string"
        },
        {
          "internalType": "uint256",
          "name": "PVTval",
          "type": "uint256"
        },
        {
          "internalType": "uint256",
          "name": "NVTval",
          "type": "uint256"
        }
      ],
      "name": "addItem",
      "outputs": [],
      "stateMutability": "payable",
      "type": "function",
      "payable": true
    },
    {
      "inputs": [
        {
          "internalType": "uint256",
          "name": "index",
          "type": "uint256"
        }
      ],
      "name": "mintTokensAfterAdded",
      "outputs": [],
      "stateMutability": "nonpayable",
      "type": "function"
    },
    {
      "inputs": [
        {
          "internalType": "address",
          "name": "PVTaddr",
          "type": "address"
        },
        {
          "internalType": "address",
          "name": "NVTaddr",
          "type": "address"
        }
      ],
      "name": "setupPVTNVT",
      "outputs": [],
      "stateMutability": "nonpayable",
      "type": "function"
    },
    {
      "inputs": [
        {
          "internalType": "bytes[]",
          "name": "data",
          "type": "bytes[]"
        }
      ],
      "name": "multicall",
      "outputs": [
        {
          "internalType": "bytes[]",
          "name": "results",
          "type": "bytes[]"
        }
      ],
      "stateMutability": "view",
      "type": "function",
      "constant": true
    },
    {
      "inputs": [
        {
          "internalType": "string",
          "name": "guid",
          "type": "string"
        }
      ],
      "name": "getNameByGUID",
      "outputs": [
        {
          "internalType": "string",
          "name": "",
          "type": "string"
        }
      ],
      "stateMutability": "view",
      "type": "function",
      "constant": true
    }
  ],
  "bytecode": "0x608060405234801561000f575f80fd5b50614deb8061001d5f395ff3fe608060405260043610610165575f3560e01c806360119180116100d0578063bfb231d211610089578063eaffd42911610063578063eaffd42914610568578063f62d882614610592578063f851a440146105ce578063f863208d146105f857610165565b8063bfb231d2146104ce578063cdf21a4914610510578063dd6f17d41461052c57610165565b8063601191801461039957806364ed7528146103b557806375543074146103f157806379eeaac21461042d578063ac9650d81461046a578063b0a6217b146104a657610165565b8063410d59cc11610122578063410d59cc1461028d5780634262b1a4146102b7578063464858c6146102f35780634c71de3b1461031d57806353c02560146103475780635f1468f51461037157610165565b80630e1e48b4146101695780631486d52a146101935780631a5e9986146101bb578063246f8c44146101e55780633050bbae146102295780633129e77314610251575b5f80fd5b348015610174575f80fd5b5061017d610622565b60405161018a9190613072565b60405180910390f35b34801561019e575f80fd5b506101b960048036038101906101b491906130d7565b610647565b005b3480156101c6575f80fd5b506101cf610876565b6040516101dc9190613135565b60405180910390f35b3480156101f0575f80fd5b5061020b60048036038101906102069190613181565b61089b565b60405161022099989796959493929190613254565b60405180910390f35b348015610234575f80fd5b5061024f600480360381019061024a9190613181565b610ac4565b005b34801561025c575f80fd5b5061027760048036038101906102729190613181565b6111b6565b604051610284919061340c565b60405180910390f35b348015610298575f80fd5b506102a16113d7565b6040516102ae919061358e565b60405180910390f35b3480156102c2575f80fd5b506102dd60048036038101906102d891906136da565b61161a565b6040516102ea9190613721565b60405180910390f35b3480156102fe575f80fd5b50610307611647565b604051610314919061375a565b60405180910390f35b348015610328575f80fd5b5061033161166c565b60405161033e9190613721565b60405180910390f35b348015610352575f80fd5b5061035b611672565b604051610368919061375a565b60405180910390f35b34801561037c575f80fd5b5061039760048036038101906103929190613773565b611697565b005b6103b360048036038101906103ae91906137b1565b611849565b005b3480156103c0575f80fd5b506103db60048036038101906103d691906136da565b6119c7565b6040516103e8919061380b565b60405180910390f35b3480156103fc575f80fd5b5061041760048036038101906104129190613181565b611a7a565b604051610424919061390a565b60405180910390f35b348015610438575f80fd5b50610453600480360381019061044e919061392a565b611d36565b6040516104619291906139fe565b60405180910390f35b348015610475575f80fd5b50610490600480360381019061048b9190613a82565b61227b565b60405161049d9190613bda565b60405180910390f35b3480156104b1575f80fd5b506104cc60048036038101906104c791906130d7565b612385565b005b3480156104d9575f80fd5b506104f460048036038101906104ef9190613181565b6124d5565b6040516105079796959493929190613c09565b60405180910390f35b61052a60048036038101906105259190613c8b565b6126c0565b005b348015610537575f80fd5b50610552600480360381019061054d91906136da565b6129c7565b60405161055f919061380b565b60405180910390f35b348015610573575f80fd5b5061057c612a75565b6040516105899190613f23565b60405180910390f35b34801561059d575f80fd5b506105b860048036038101906105b391906136da565b612d53565b6040516105c59190613721565b60405180910390f35b3480156105d9575f80fd5b506105e2612d80565b6040516105ef9190613f43565b60405180910390f35b348015610603575f80fd5b5061060c612da3565b6040516106199190613721565b60405180910390f35b60045f9054906101000a900473ffffffffffffffffffffffffffffffffffffffff1681565b5f8054906101000a900473ffffffffffffffffffffffffffffffffffffffff1673ffffffffffffffffffffffffffffffffffffffff163373ffffffffffffffffffffffffffffffffffffffff16146106d4576040517f08c379a00000000000000000000000000000000000000000000000000000000081526004016106cb90613fa6565b60405180910390fd5b5f73ffffffffffffffffffffffffffffffffffffffff1660015f9054906101000a900473ffffffffffffffffffffffffffffffffffffffff1673ffffffffffffffffffffffffffffffffffffffff1614610763576040517f08c379a000000000000000000000000000000000000000000000000000000000815260040161075a9061400e565b60405180910390fd5b5f73ffffffffffffffffffffffffffffffffffffffff1660025f9054906101000a900473ffffffffffffffffffffffffffffffffffffffff1673ffffffffffffffffffffffffffffffffffffffff16146107f2576040517f08c379a00000000000000000000000000000000000000000000000000000000081526004016107e990614076565b60405180910390fd5b8160015f6101000a81548173ffffffffffffffffffffffffffffffffffffffff021916908373ffffffffffffffffffffffffffffffffffffffff1602179055508060025f6101000a81548173ffffffffffffffffffffffffffffffffffffffff021916908373ffffffffffffffffffffffffffffffffffffffff1602179055505050565b60035f9054906101000a900473ffffffffffffffffffffffffffffffffffffffff1681565b600581815481106108aa575f80fd5b905f5260205f2090600902015f91509050805f0180546108c9906140c1565b80601f01602080910402602001604051908101604052809291908181526020018280546108f5906140c1565b80156109405780601f1061091757610100808354040283529160200191610940565b820191905f5260205f20905b81548152906001019060200180831161092357829003601f168201915b505050505090806001018054610955906140c1565b80601f0160208091040260200160405190810160405280929190818152602001828054610981906140c1565b80156109cc5780601f106109a3576101008083540402835291602001916109cc565b820191905f5260205f20905b8154815290600101906020018083116109af57829003601f168201915b5050505050908060020180546109e1906140c1565b80601f0160208091040260200160405190810160405280929190818152602001828054610a0d906140c1565b8015610a585780601f10610a2f57610100808354040283529160200191610a58565b820191905f5260205f20905b815481529060010190602001808311610a3b57829003601f168201915b505050505090806003015f9054906101000a900473ffffffffffffffffffffffffffffffffffffffff1690806004015f9054906101000a900473ffffffffffffffffffffffffffffffffffffffff16908060050154908060060154908060070154908060080154905089565b5f60078281548110610ad957610ad86140f1565b5b905f5260205f2090600702016040518060e00160405290815f82018054610aff906140c1565b80601f0160208091040260200160405190810160405280929190818152602001828054610b2b906140c1565b8015610b765780601f10610b4d57610100808354040283529160200191610b76565b820191905f5260205f20905b815481529060010190602001808311610b5957829003601f168201915b50505050508152602001600182018054610b8f906140c1565b80601f0160208091040260200160405190810160405280929190818152602001828054610bbb906140c1565b8015610c065780601f10610bdd57610100808354040283529160200191610c06565b820191905f5260205f20905b815481529060010190602001808311610be957829003601f168201915b5050505050815260200160028201548152602001600382018054610c29906140c1565b80601f0160208091040260200160405190810160405280929190818152602001828054610c55906140c1565b8015610ca05780601f10610c7757610100808354040283529160200191610ca0565b820191905f5260205f20905b815481529060010190602001808311610c8357829003601f168201915b505050505081526020016004820154815260200160058201548152602001600682015f9054906101000a900460ff16151515158152505090505f6005826040015181548110610cf257610cf16140f1565b5b905f5260205f2090600902016003015f9054906101000a900473ffffffffffffffffffffffffffffffffffffffff1673ffffffffffffffffffffffffffffffffffffffff16634aac84e58360600151805190602001206040518263ffffffff1660e01b8152600401610d649190614136565b606060405180830381865afa158015610d7f573d5f803e3d5ffd5b505050506040513d601f19601f82011682018060405250810190610da39190614186565b5050905060016003811115610dbb57610dba6141d6565b5b816003811115610dce57610dcd6141d6565b5b14610e0e576040517f08c379a0000000000000000000000000000000000000000000000000000000008152600401610e059061424d565b60405180910390fd5b5f15158260c00151151514610e58576040517f08c379a0000000000000000000000000000000000000000000000000000000008152600401610e4f906142b5565b60405180910390fd5b5f73ffffffffffffffffffffffffffffffffffffffff166005836040015181548110610e8757610e866140f1565b5b905f5260205f2090600902016004015f9054906101000a900473ffffffffffffffffffffffffffffffffffffffff1673ffffffffffffffffffffffffffffffffffffffff1603610f0c576040517f08c379a0000000000000000000000000000000000000000000000000000000008152600401610f039061431d565b60405180910390fd5b60018260c001901515908115158152505081608001516005836040015181548110610f3a57610f396140f1565b5b905f5260205f2090600902016007015f828254610f579190614368565b925050819055508160a001516005836040015181548110610f7b57610f7a6140f1565b5b905f5260205f2090600902016008015f828254610f989190614368565b9250508190555060015f9054906101000a900473ffffffffffffffffffffffffffffffffffffffff1673ffffffffffffffffffffffffffffffffffffffff166340c10f196005846040015181548110610ff457610ff36140f1565b5b905f5260205f2090600902016004015f9054906101000a900473ffffffffffffffffffffffffffffffffffffffff16670de0b6b3a7640000856080015161103b919061439b565b6040518363ffffffff1660e01b81526004016110589291906143dc565b5f604051808303815f87803b15801561106f575f80fd5b505af1158015611081573d5f803e3d5ffd5b5050505060025f9054906101000a900473ffffffffffffffffffffffffffffffffffffffff1673ffffffffffffffffffffffffffffffffffffffff166340c10f1960058460400151815481106110da576110d96140f1565b5b905f5260205f2090600902016004015f9054906101000a900473ffffffffffffffffffffffffffffffffffffffff16670de0b6b3a76400008560a00151611121919061439b565b6040518363ffffffff1660e01b815260040161113e9291906143dc565b5f604051808303815f87803b158015611155575f80fd5b505af1158015611167573d5f803e3d5ffd5b505050507f6a8c2843702842060d540e1810977af2fb2878a98f24166d00d23a0da56b7111825f015183608001518460a001516040516111a993929190614403565b60405180910390a1505050565b6111be612f4b565b600782815481106111d2576111d16140f1565b5b905f5260205f2090600702016040518060e00160405290815f820180546111f8906140c1565b80601f0160208091040260200160405190810160405280929190818152602001828054611224906140c1565b801561126f5780601f106112465761010080835404028352916020019161126f565b820191905f5260205f20905b81548152906001019060200180831161125257829003601f168201915b50505050508152602001600182018054611288906140c1565b80601f01602080910402602001604051908101604052809291908181526020018280546112b4906140c1565b80156112ff5780601f106112d6576101008083540402835291602001916112ff565b820191905f5260205f20905b8154815290600101906020018083116112e257829003601f168201915b5050505050815260200160028201548152602001600382018054611322906140c1565b80601f016020809104026020016040519081016040528092919081815260200182805461134e906140c1565b80156113995780601f1061137057610100808354040283529160200191611399565b820191905f5260205f20905b81548152906001019060200180831161137c57829003601f168201915b505050505081526020016004820154815260200160058201548152602001600682015f9054906101000a900460ff1615151515815250509050919050565b60606007805480602002602001604051908101604052809291908181526020015f905b82821015611611578382905f5260205f2090600702016040518060e00160405290815f8201805461142a906140c1565b80601f0160208091040260200160405190810160405280929190818152602001828054611456906140c1565b80156114a15780601f10611478576101008083540402835291602001916114a1565b820191905f5260205f20905b81548152906001019060200180831161148457829003601f168201915b505050505081526020016001820180546114ba906140c1565b80601f01602080910402602001604051908101604052809291908181526020018280546114e6906140c1565b80156115315780601f1061150857610100808354040283529160200191611531565b820191905f5260205f20905b81548152906001019060200180831161151457829003601f168201915b5050505050815260200160028201548152602001600382018054611554906140c1565b80601f0160208091040260200160405190810160405280929190818152602001828054611580906140c1565b80156115cb5780601f106115a2576101008083540402835291602001916115cb565b820191905f5260205f20905b8154815290600101906020018083116115ae57829003601f168201915b505050505081526020016004820154815260200160058201548152602001600682015f9054906101000a900460ff161515151581525050815260200190600101906113fa565b50505050905090565b600a818051602081018201805184825260208301602085012081835280955050505050505f915090505481565b60025f9054906101000a900473ffffffffffffffffffffffffffffffffffffffff1681565b60065481565b60015f9054906101000a900473ffffffffffffffffffffffffffffffffffffffff1681565b5f8054906101000a900473ffffffffffffffffffffffffffffffffffffffff1673ffffffffffffffffffffffffffffffffffffffff163373ffffffffffffffffffffffffffffffffffffffff1614611724576040517f08c379a000000000000000000000000000000000000000000000000000000000815260040161171b90613fa6565b60405180910390fd5b8060058381548110611739576117386140f1565b5b905f5260205f2090600902016004015f6101000a81548173ffffffffffffffffffffffffffffffffffffffff021916908373ffffffffffffffffffffffffffffffffffffffff1602179055507f30af179bc14fc899916546ad9882ebb336ec1b43840c225975e6c960276b75fc600583815481106117ba576117b96140f1565b5b905f5260205f2090600902015f01600584815481106117dc576117db6140f1565b5b905f5260205f209060090201600101600585815481106117ff576117fe6140f1565b5b905f5260205f2090600902016004015f9054906101000a900473ffffffffffffffffffffffffffffffffffffffff1660405161183d939291906144d2565b60405180910390a15050565b806005838154811061185e5761185d6140f1565b5b905f5260205f20906009020160020190816118799190614697565b5060045f9054906101000a900473ffffffffffffffffffffffffffffffffffffffff1673ffffffffffffffffffffffffffffffffffffffff166327e9f29434836040518363ffffffff1660e01b81526004016118d5919061380b565b5f604051808303818588803b1580156118ec575f80fd5b505af11580156118fe573d5f803e3d5ffd5b50505050507f5eef92c113ef5371d40832c72295018688561045f760953d02511b3da0111e2760058381548110611938576119376140f1565b5b905f5260205f2090600902015f016005848154811061195a576119596140f1565b5b905f5260205f2090600902016001016005858154811061197d5761197c6140f1565b5b905f5260205f2090600902016003015f9054906101000a900473ffffffffffffffffffffffffffffffffffffffff166040516119bb939291906144d2565b60405180910390a15050565b6009818051602081018201805184825260208301602085012081835280955050505050505f9150905080546119fb906140c1565b80601f0160208091040260200160405190810160405280929190818152602001828054611a27906140c1565b8015611a725780601f10611a4957610100808354040283529160200191611a72565b820191905f5260205f20905b815481529060010190602001808311611a5557829003601f168201915b505050505081565b611a82612f86565b60058281548110611a9657611a956140f1565b5b905f5260205f209060090201604051806101200160405290815f82018054611abd906140c1565b80601f0160208091040260200160405190810160405280929190818152602001828054611ae9906140c1565b8015611b345780601f10611b0b57610100808354040283529160200191611b34565b820191905f5260205f20905b815481529060010190602001808311611b1757829003601f168201915b50505050508152602001600182018054611b4d906140c1565b80601f0160208091040260200160405190810160405280929190818152602001828054611b79906140c1565b8015611bc45780601f10611b9b57610100808354040283529160200191611bc4565b820191905f5260205f20905b815481529060010190602001808311611ba757829003601f168201915b50505050508152602001600282018054611bdd906140c1565b80601f0160208091040260200160405190810160405280929190818152602001828054611c09906140c1565b8015611c545780601f10611c2b57610100808354040283529160200191611c54565b820191905f5260205f20905b815481529060010190602001808311611c3757829003601f168201915b50505050508152602001600382015f9054906101000a900473ffffffffffffffffffffffffffffffffffffffff1673ffffffffffffffffffffffffffffffffffffffff1673ffffffffffffffffffffffffffffffffffffffff168152602001600482015f9054906101000a900473ffffffffffffffffffffffffffffffffffffffff1673ffffffffffffffffffffffffffffffffffffffff1673ffffffffffffffffffffffffffffffffffffffff1681526020016005820154815260200160068201548152602001600782015481526020016008820154815250509050919050565b5f8085855f600983604051611d4b91906147a0565b90815260200160405180910390208054611d64906140c1565b905014611da6576040517f08c379a0000000000000000000000000000000000000000000000000000000008152600401611d9d90614800565b60405180910390fd5b80600983604051611db791906147a0565b90815260200160405180910390209081611dd19190614697565b5060035f9054906101000a900473ffffffffffffffffffffffffffffffffffffffff1673ffffffffffffffffffffffffffffffffffffffff1663d8dcbd27731128ed55ab2d796fa92d2f8e1f336d745354a77a600160f81b604051602001611e399190614869565b6040516020818303038152906040525f8a8a7385a363699c6864248a6ffca66e4a1a5ccf9f5567604051806080016040528066b1a2bc2ec50000815260200166b1a2bc2ec5000081526020015f815260200166b1a2bc2ec500008152506078604051806060016040528061271081526020016127108152602001614e208152505f6040518b63ffffffff1660e01b8152600401611edf9a99989796959493929190614a19565b5f604051808303815f87803b158015611ef6575f80fd5b505af1158015611f08573d5f803e3d5ffd5b505050505f60035f9054906101000a900473ffffffffffffffffffffffffffffffffffffffff1673ffffffffffffffffffffffffffffffffffffffff166306661abd6040518163ffffffff1660e01b8152600401602060405180830381865afa158015611f77573d5f803e3d5ffd5b505050506040513d601f19601f82011682018060405250810190611f9b9190614ac9565b90505f60035f9054906101000a900473ffffffffffffffffffffffffffffffffffffffff1673ffffffffffffffffffffffffffffffffffffffff1663a2f7b3a5600184611fe89190614af4565b6040518263ffffffff1660e01b81526004016120049190613721565b602060405180830381865afa15801561201f573d5f803e3d5ffd5b505050506040513d601f19601f820116820180604052508101906120439190614b3b565b90505f6040518061012001604052808c81526020018b815260200160405180602001604052805f81525081526020018373ffffffffffffffffffffffffffffffffffffffff1681526020015f73ffffffffffffffffffffffffffffffffffffffff1681526020015f81526020015f81526020015f81526020015f8152509050600581908060018154018082558091505060019003905f5260205f2090600902015f909190919091505f820151815f0190816120fe9190614697565b5060208201518160010190816121149190614697565b50604082015181600201908161212a9190614697565b506060820151816003015f6101000a81548173ffffffffffffffffffffffffffffffffffffffff021916908373ffffffffffffffffffffffffffffffffffffffff1602179055506080820151816004015f6101000a81548173ffffffffffffffffffffffffffffffffffffffff021916908373ffffffffffffffffffffffffffffffffffffffff16021790555060a0820151816005015560c0820151816006015560e0820151816007015561010082015181600801555050600654600a8c6040516121f591906147a0565b90815260200160405180910390208190555060065f81548092919061221990614b66565b91905055507fc44e183c754302ef15109f52d77f53bd487b2929e40a2480ac4aee5500042bc48b8b8460405161225193929190614bad565b60405180910390a160016006546122689190614af4565b8296509650505050505094509492505050565b60608282905067ffffffffffffffff81111561229a576122996135b6565b5b6040519080825280602002602001820160405280156122cd57816020015b60608152602001906001900390816122b85790505b5090505f5b8383905081101561237e5761234d308585848181106122f4576122f36140f1565b5b90506020028101906123069190614bfc565b8080601f0160208091040260200160405190810160405280939291908181526020018383808284375f81840152601f19601f82011690508083019250505050505050612da9565b8282815181106123605761235f6140f1565b5b6020026020010181905250808061237690614b66565b9150506122d2565b5092915050565b5f73ffffffffffffffffffffffffffffffffffffffff165f8054906101000a900473ffffffffffffffffffffffffffffffffffffffff1673ffffffffffffffffffffffffffffffffffffffff1614612412576040517f08c379a000000000000000000000000000000000000000000000000000000000815260040161240990614ca8565b60405180910390fd5b335f806101000a81548173ffffffffffffffffffffffffffffffffffffffff021916908373ffffffffffffffffffffffffffffffffffffffff1602179055508160035f6101000a81548173ffffffffffffffffffffffffffffffffffffffff021916908373ffffffffffffffffffffffffffffffffffffffff1602179055508060045f6101000a81548173ffffffffffffffffffffffffffffffffffffffff021916908373ffffffffffffffffffffffffffffffffffffffff1602179055505050565b600781815481106124e4575f80fd5b905f5260205f2090600702015f91509050805f018054612503906140c1565b80601f016020809104026020016040519081016040528092919081815260200182805461252f906140c1565b801561257a5780601f106125515761010080835404028352916020019161257a565b820191905f5260205f20905b81548152906001019060200180831161255d57829003601f168201915b50505050509080600101805461258f906140c1565b80601f01602080910402602001604051908101604052809291908181526020018280546125bb906140c1565b80156126065780601f106125dd57610100808354040283529160200191612606565b820191905f5260205f20905b8154815290600101906020018083116125e957829003601f168201915b505050505090806002015490806003018054612621906140c1565b80601f016020809104026020016040519081016040528092919081815260200182805461264d906140c1565b80156126985780601f1061266f57610100808354040283529160200191612698565b820191905f5260205f20905b81548152906001019060200180831161267b57829003601f168201915b505050505090806004015490806005015490806006015f9054906101000a900460ff16905087565b86865f6009836040516126d391906147a0565b908152602001604051809103902080546126ec906140c1565b90501461272e576040517f08c379a000000000000000000000000000000000000000000000000000000000815260040161272590614800565b60405180910390fd5b8060098360405161273f91906147a0565b908152602001604051809103902090816127599190614697565b505f6040518060e001604052808b81526020018981526020018881526020018781526020018681526020018581526020015f15158152509050600781908060018154018082558091505060019003905f5260205f2090600702015f909190919091505f820151815f0190816127ce9190614697565b5060208201518160010190816127e49190614697565b506040820151816002015560608201518160030190816128049190614697565b506080820151816004015560a0820151816005015560c0820151816006015f6101000a81548160ff0219169083151502179055505050600854600b8b60405161284d91906147a0565b90815260200160405180910390208190555060085f81548092919061287190614b66565b91905055505f6005888154811061288b5761288a6140f1565b5b905f5260205f2090600902016003015f9054906101000a900473ffffffffffffffffffffffffffffffffffffffff1690508073ffffffffffffffffffffffffffffffffffffffff166327e9f29434896040518363ffffffff1660e01b81526004016128f6919061380b565b5f604051808303818588803b15801561290d575f80fd5b505af115801561291f573d5f803e3d5ffd5b50505050507fe2fe3bf58c9ac687091bae15883ea4c5477b401c5d4ce89e6416548462d1bd4560058981548110612959576129586140f1565b5b905f5260205f2090600902015f0160058a8154811061297b5761297a6140f1565b5b905f5260205f2090600902016001018d600160085461299a9190614af4565b8e8c8c8c6040516129b2989796959493929190614cc6565b60405180910390a15050505050505050505050565b60606009826040516129d991906147a0565b908152602001604051809103902080546129f2906140c1565b80601f0160208091040260200160405190810160405280929190818152602001828054612a1e906140c1565b8015612a695780601f10612a4057610100808354040283529160200191612a69565b820191905f5260205f20905b815481529060010190602001808311612a4c57829003601f168201915b50505050509050919050565b60606005805480602002602001604051908101604052809291908181526020015f905b82821015612d4a578382905f5260205f209060090201604051806101200160405290815f82018054612ac9906140c1565b80601f0160208091040260200160405190810160405280929190818152602001828054612af5906140c1565b8015612b405780601f10612b1757610100808354040283529160200191612b40565b820191905f5260205f20905b815481529060010190602001808311612b2357829003601f168201915b50505050508152602001600182018054612b59906140c1565b80601f0160208091040260200160405190810160405280929190818152602001828054612b85906140c1565b8015612bd05780601f10612ba757610100808354040283529160200191612bd0565b820191905f5260205f20905b815481529060010190602001808311612bb357829003601f168201915b50505050508152602001600282018054612be9906140c1565b80601f0160208091040260200160405190810160405280929190818152602001828054612c15906140c1565b8015612c605780601f10612c3757610100808354040283529160200191612c60565b820191905f5260205f20905b815481529060010190602001808311612c4357829003601f168201915b50505050508152602001600382015f9054906101000a900473ffffffffffffffffffffffffffffffffffffffff1673ffffffffffffffffffffffffffffffffffffffff1673ffffffffffffffffffffffffffffffffffffffff168152602001600482015f9054906101000a900473ffffffffffffffffffffffffffffffffffffffff1673ffffffffffffffffffffffffffffffffffffffff1673ffffffffffffffffffffffffffffffffffffffff16815260200160058201548152602001600682015481526020016007820154815260200160088201548152505081526020019060010190612a98565b50505050905090565b600b818051602081018201805184825260208301602085012081835280955050505050505f915090505481565b5f8054906101000a900473ffffffffffffffffffffffffffffffffffffffff1681565b60085481565b6060612db88383612dc0612df2565b905092915050565b6040517f1425ea4200000000000000000000000000000000000000000000000000000000815260040160405180910390fd5b60605f808573ffffffffffffffffffffffffffffffffffffffff1685604051612e1b9190614d9f565b5f60405180830381855afa9150503d805f8114612e53576040519150601f19603f3d011682016040523d82523d5f602084013e612e58565b606091505b5091509150612e6986838387612e74565b925050509392505050565b60608315612ee8575f835103612ee0575f8573ffffffffffffffffffffffffffffffffffffffff163b03612edf57846040517f9996b315000000000000000000000000000000000000000000000000000000008152600401612ed69190613f43565b60405180910390fd5b5b829050612ef3565b612ef28383612efb565b5b949350505050565b5f82511115612f0d5781518083602001fd5b612f198163ffffffff16565b6040517f1425ea4200000000000000000000000000000000000000000000000000000000815260040160405180910390fd5b6040518060e0016040528060608152602001606081526020015f8152602001606081526020015f81526020015f81526020015f151581525090565b6040518061012001604052806060815260200160608152602001606081526020015f73ffffffffffffffffffffffffffffffffffffffff1681526020015f73ffffffffffffffffffffffffffffffffffffffff1681526020015f81526020015f81526020015f81526020015f81525090565b5f73ffffffffffffffffffffffffffffffffffffffff82169050919050565b5f819050919050565b5f61303a61303561303084612ff8565b613017565b612ff8565b9050919050565b5f61304b82613020565b9050919050565b5f61305c82613041565b9050919050565b61306c81613052565b82525050565b5f6020820190506130855f830184613063565b92915050565b5f604051905090565b5f80fd5b5f80fd5b5f6130a682612ff8565b9050919050565b6130b68161309c565b81146130c0575f80fd5b50565b5f813590506130d1816130ad565b92915050565b5f80604083850312156130ed576130ec613094565b5b5f6130fa858286016130c3565b925050602061310b858286016130c3565b9150509250929050565b5f61311f82613041565b9050919050565b61312f81613115565b82525050565b5f6020820190506131485f830184613126565b92915050565b5f819050919050565b6131608161314e565b811461316a575f80fd5b50565b5f8135905061317b81613157565b92915050565b5f6020828403121561319657613195613094565b5b5f6131a38482850161316d565b91505092915050565b5f81519050919050565b5f82825260208201905092915050565b5f5b838110156131e35780820151818401526020810190506131c8565b5f8484015250505050565b5f601f19601f8301169050919050565b5f613208826131ac565b61321281856131b6565b93506132228185602086016131c6565b61322b816131ee565b840191505092915050565b61323f8161309c565b82525050565b61324e8161314e565b82525050565b5f610120820190508181035f83015261326d818c6131fe565b90508181036020830152613281818b6131fe565b90508181036040830152613295818a6131fe565b90506132a46060830189613236565b6132b16080830188613236565b6132be60a0830187613245565b6132cb60c0830186613245565b6132d860e0830185613245565b6132e6610100830184613245565b9a9950505050505050505050565b5f82825260208201905092915050565b5f61330e826131ac565b61331881856132f4565b93506133288185602086016131c6565b613331816131ee565b840191505092915050565b6133458161314e565b82525050565b5f8115159050919050565b61335f8161334b565b82525050565b5f60e083015f8301518482035f86015261337f8282613304565b915050602083015184820360208601526133998282613304565b91505060408301516133ae604086018261333c565b50606083015184820360608601526133c68282613304565b91505060808301516133db608086018261333c565b5060a08301516133ee60a086018261333c565b5060c083015161340160c0860182613356565b508091505092915050565b5f6020820190508181035f8301526134248184613365565b905092915050565b5f81519050919050565b5f82825260208201905092915050565b5f819050602082019050919050565b5f60e083015f8301518482035f86015261346f8282613304565b915050602083015184820360208601526134898282613304565b915050604083015161349e604086018261333c565b50606083015184820360608601526134b68282613304565b91505060808301516134cb608086018261333c565b5060a08301516134de60a086018261333c565b5060c08301516134f160c0860182613356565b508091505092915050565b5f6135078383613455565b905092915050565b5f602082019050919050565b5f6135258261342c565b61352f8185613436565b93508360208202850161354185613446565b805f5b8581101561357c578484038952815161355d85826134fc565b94506135688361350f565b925060208a01995050600181019050613544565b50829750879550505050505092915050565b5f6020820190508181035f8301526135a6818461351b565b905092915050565b5f80fd5b5f80fd5b7f4e487b71000000000000000000000000000000000000000000000000000000005f52604160045260245ffd5b6135ec826131ee565b810181811067ffffffffffffffff8211171561360b5761360a6135b6565b5b80604052505050565b5f61361d61308b565b905061362982826135e3565b919050565b5f67ffffffffffffffff821115613648576136476135b6565b5b613651826131ee565b9050602081019050919050565b828183375f83830152505050565b5f61367e6136798461362e565b613614565b90508281526020810184848401111561369a576136996135b2565b5b6136a584828561365e565b509392505050565b5f82601f8301126136c1576136c06135ae565b5b81356136d184826020860161366c565b91505092915050565b5f602082840312156136ef576136ee613094565b5b5f82013567ffffffffffffffff81111561370c5761370b613098565b5b613718848285016136ad565b91505092915050565b5f6020820190506137345f830184613245565b92915050565b5f61374482613041565b9050919050565b6137548161373a565b82525050565b5f60208201905061376d5f83018461374b565b92915050565b5f806040838503121561378957613788613094565b5b5f6137968582860161316d565b92505060206137a7858286016130c3565b9150509250929050565b5f80604083850312156137c7576137c6613094565b5b5f6137d48582860161316d565b925050602083013567ffffffffffffffff8111156137f5576137f4613098565b5b613801858286016136ad565b9150509250929050565b5f6020820190508181035f83015261382381846131fe565b905092915050565b6138348161309c565b82525050565b5f61012083015f8301518482035f8601526138558282613304565b9150506020830151848203602086015261386f8282613304565b915050604083015184820360408601526138898282613304565b915050606083015161389e606086018261382b565b5060808301516138b1608086018261382b565b5060a08301516138c460a086018261333c565b5060c08301516138d760c086018261333c565b5060e08301516138ea60e086018261333c565b506101008301516138ff61010086018261333c565b508091505092915050565b5f6020820190508181035f830152613922818461383a565b905092915050565b5f805f806080858703121561394257613941613094565b5b5f85013567ffffffffffffffff81111561395f5761395e613098565b5b61396b878288016136ad565b945050602085013567ffffffffffffffff81111561398c5761398b613098565b5b613998878288016136ad565b935050604085013567ffffffffffffffff8111156139b9576139b8613098565b5b6139c5878288016136ad565b925050606085013567ffffffffffffffff8111156139e6576139e5613098565b5b6139f2878288016136ad565b91505092959194509250565b5f604082019050613a115f830185613245565b613a1e6020830184613236565b9392505050565b5f80fd5b5f80fd5b5f8083601f840112613a4257613a416135ae565b5b8235905067ffffffffffffffff811115613a5f57613a5e613a25565b5b602083019150836020820283011115613a7b57613a7a613a29565b5b9250929050565b5f8060208385031215613a9857613a97613094565b5b5f83013567ffffffffffffffff811115613ab557613ab4613098565b5b613ac185828601613a2d565b92509250509250929050565b5f81519050919050565b5f82825260208201905092915050565b5f819050602082019050919050565b5f81519050919050565b5f82825260208201905092915050565b5f613b1a82613af6565b613b248185613b00565b9350613b348185602086016131c6565b613b3d816131ee565b840191505092915050565b5f613b538383613b10565b905092915050565b5f602082019050919050565b5f613b7182613acd565b613b7b8185613ad7565b935083602082028501613b8d85613ae7565b805f5b85811015613bc85784840389528151613ba98582613b48565b9450613bb483613b5b565b925060208a01995050600181019050613b90565b50829750879550505050505092915050565b5f6020820190508181035f830152613bf28184613b67565b905092915050565b613c038161334b565b82525050565b5f60e0820190508181035f830152613c21818a6131fe565b90508181036020830152613c3581896131fe565b9050613c446040830188613245565b8181036060830152613c5681876131fe565b9050613c656080830186613245565b613c7260a0830185613245565b613c7f60c0830184613bfa565b98975050505050505050565b5f805f805f805f60e0888a031215613ca657613ca5613094565b5b5f88013567ffffffffffffffff811115613cc357613cc2613098565b5b613ccf8a828b016136ad565b975050602088013567ffffffffffffffff811115613cf057613cef613098565b5b613cfc8a828b016136ad565b965050604088013567ffffffffffffffff811115613d1d57613d1c613098565b5b613d298a828b016136ad565b9550506060613d3a8a828b0161316d565b945050608088013567ffffffffffffffff811115613d5b57613d5a613098565b5b613d678a828b016136ad565b93505060a0613d788a828b0161316d565b92505060c0613d898a828b0161316d565b91505092959891949750929550565b5f81519050919050565b5f82825260208201905092915050565b5f819050602082019050919050565b5f61012083015f8301518482035f860152613ddc8282613304565b91505060208301518482036020860152613df68282613304565b91505060408301518482036040860152613e108282613304565b9150506060830151613e25606086018261382b565b506080830151613e38608086018261382b565b5060a0830151613e4b60a086018261333c565b5060c0830151613e5e60c086018261333c565b5060e0830151613e7160e086018261333c565b50610100830151613e8661010086018261333c565b508091505092915050565b5f613e9c8383613dc1565b905092915050565b5f602082019050919050565b5f613eba82613d98565b613ec48185613da2565b935083602082028501613ed685613db2565b805f5b85811015613f115784840389528151613ef28582613e91565b9450613efd83613ea4565b925060208a01995050600181019050613ed9565b50829750879550505050505092915050565b5f6020820190508181035f830152613f3b8184613eb0565b905092915050565b5f602082019050613f565f830184613236565b92915050565b7f5265737472696374656420746f2061646d696e000000000000000000000000005f82015250565b5f613f906013836131b6565b9150613f9b82613f5c565b602082019050919050565b5f6020820190508181035f830152613fbd81613f84565b9050919050565b7f50565420616c726561647920696e697469616c697365640000000000000000005f82015250565b5f613ff86017836131b6565b915061400382613fc4565b602082019050919050565b5f6020820190508181035f83015261402581613fec565b9050919050565b7f4e565420616c726561647920696e697469616c697365640000000000000000005f82015250565b5f6140606017836131b6565b915061406b8261402c565b602082019050919050565b5f6020820190508181035f83015261408d81614054565b9050919050565b7f4e487b71000000000000000000000000000000000000000000000000000000005f52602260045260245ffd5b5f60028204905060018216806140d857607f821691505b6020821081036140eb576140ea614094565b5b50919050565b7f4e487b71000000000000000000000000000000000000000000000000000000005f52603260045260245ffd5b5f819050919050565b6141308161411e565b82525050565b5f6020820190506141495f830184614127565b92915050565b6004811061415b575f80fd5b50565b5f8151905061416c8161414f565b92915050565b5f8151905061418081613157565b92915050565b5f805f6060848603121561419d5761419c613094565b5b5f6141aa8682870161415e565b93505060206141bb86828701614172565b92505060406141cc86828701614172565b9150509250925092565b7f4e487b71000000000000000000000000000000000000000000000000000000005f52602160045260245ffd5b7f5374617475732073686f756c64206265205265676973746572656400000000005f82015250565b5f614237601b836131b6565b915061424282614203565b602082019050919050565b5f6020820190508181035f8301526142648161422b565b9050919050565b7f505654204e565420616c7265616479206d696e746564000000000000000000005f82015250565b5f61429f6016836131b6565b91506142aa8261426b565b602082019050919050565b5f6020820190508181035f8301526142cc81614293565b9050919050565b7f5061796f75742077616c6c6574206e6f742073657400000000000000000000005f82015250565b5f6143076015836131b6565b9150614312826142d3565b602082019050919050565b5f6020820190508181035f830152614334816142fb565b9050919050565b7f4e487b71000000000000000000000000000000000000000000000000000000005f52601160045260245ffd5b5f6143728261314e565b915061437d8361314e565b92508282019050808211156143955761439461433b565b5b92915050565b5f6143a58261314e565b91506143b08361314e565b92508282026143be8161314e565b915082820484148315176143d5576143d461433b565b5b5092915050565b5f6040820190506143ef5f830185613236565b6143fc6020830184613245565b9392505050565b5f6060820190508181035f83015261441b81866131fe565b905061442a6020830185613245565b6144376040830184613245565b949350505050565b5f819050815f5260205f209050919050565b5f815461445d816140c1565b61446781866131b6565b9450600182165f81146144815760018114614497576144c9565b60ff1983168652811515602002860193506144c9565b6144a08561443f565b5f5b838110156144c1578154818901526001820191506020810190506144a2565b808801955050505b50505092915050565b5f6060820190508181035f8301526144ea8186614451565b905081810360208301526144fe8185614451565b905061450d6040830184613236565b949350505050565b5f6020601f8301049050919050565b5f82821b905092915050565b5f6008830261455f7fffffffffffffffffffffffffffffffffffffffffffffffffffffffffffffffff82614524565b6145698683614524565b95508019841693508086168417925050509392505050565b5f61459b6145966145918461314e565b613017565b61314e565b9050919050565b5f819050919050565b6145b483614581565b6145c86145c0826145a2565b848454614530565b825550505050565b5f90565b6145dc6145d0565b6145e78184846145ab565b505050565b5b8181101561460a576145ff5f826145d4565b6001810190506145ed565b5050565b601f82111561464f576146208161443f565b61462984614515565b81016020851015614638578190505b61464c61464485614515565b8301826145ec565b50505b505050565b5f82821c905092915050565b5f61466f5f1984600802614654565b1980831691505092915050565b5f6146878383614660565b9150826002028217905092915050565b6146a0826131ac565b67ffffffffffffffff8111156146b9576146b86135b6565b5b6146c382546140c1565b6146ce82828561460e565b5f60209050601f8311600181146146ff575f84156146ed578287015190505b6146f7858261467c565b86555061475e565b601f19841661470d8661443f565b5f5b828110156147345784890151825560018201915060208501945060208101905061470f565b86831015614751578489015161474d601f891682614660565b8355505b6001600288020188555050505b505050505050565b5f81905092915050565b5f61477a826131ac565b6147848185614766565b93506147948185602086016131c6565b80840191505092915050565b5f6147ab8284614770565b915081905092915050565b7f4755494420616c726561647920657869737473000000000000000000000000005f82015250565b5f6147ea6013836131b6565b91506147f5826147b6565b602082019050919050565b5f6020820190508181035f830152614817816147de565b9050919050565b5f7fff0000000000000000000000000000000000000000000000000000000000000082169050919050565b5f819050919050565b61486361485e8261481e565b614849565b82525050565b5f6148748284614852565b60018201915081905092915050565b5f82825260208201905092915050565b5f61489d82613af6565b6148a78185614883565b93506148b78185602086016131c6565b6148c0816131ee565b840191505092915050565b5f60049050919050565b5f81905092915050565b5f819050919050565b5f6148f3838361333c565b60208301905092915050565b5f602082019050919050565b614914816148cb565b61491e81846148d5565b9250614929826148df565b805f5b8381101561495957815161494087826148e8565b965061494b836148ff565b92505060018101905061492c565b505050505050565b5f819050919050565b5f61498461497f61497a84614961565b613017565b61314e565b9050919050565b6149948161496a565b82525050565b5f60039050919050565b5f81905092915050565b5f819050919050565b5f602082019050919050565b6149cc8161499a565b6149d681846149a4565b92506149e1826149ae565b805f5b83811015614a115781516149f887826148e8565b9650614a03836149b7565b9250506001810190506149e4565b505050505050565b5f6101e082019050614a2d5f83018d613236565b8181036020830152614a3f818c614893565b9050614a4e604083018b613236565b8181036060830152614a60818a6131fe565b90508181036080830152614a7481896131fe565b9050614a8360a0830188613236565b614a9060c083018761490b565b614a9e61014083018661498b565b614aac6101608301856149c3565b614aba6101c0830184613236565b9b9a5050505050505050505050565b5f60208284031215614ade57614add613094565b5b5f614aeb84828501614172565b91505092915050565b5f614afe8261314e565b9150614b098361314e565b9250828203905081811115614b2157614b2061433b565b5b92915050565b5f81519050614b35816130ad565b92915050565b5f60208284031215614b5057614b4f613094565b5b5f614b5d84828501614b27565b91505092915050565b5f614b708261314e565b91507fffffffffffffffffffffffffffffffffffffffffffffffffffffffffffffffff8203614ba257614ba161433b565b5b600182019050919050565b5f6060820190508181035f830152614bc581866131fe565b90508181036020830152614bd981856131fe565b9050614be86040830184613236565b949350505050565b5f80fd5b5f80fd5b5f80fd5b5f8083356001602003843603038112614c1857614c17614bf0565b5b80840192508235915067ffffffffffffffff821115614c3a57614c39614bf4565b5b602083019250600182023603831315614c5657614c55614bf8565b5b509250929050565b7f416c726561647920696e697469616c69736564000000000000000000000000005f82015250565b5f614c926013836131b6565b9150614c9d82614c5e565b602082019050919050565b5f6020820190508181035f830152614cbf81614c86565b9050919050565b5f610100820190508181035f830152614cdf818b614451565b90508181036020830152614cf3818a614451565b90508181036040830152614d0781896131fe565b9050614d166060830188613245565b8181036080830152614d2881876131fe565b905081810360a0830152614d3c81866131fe565b9050614d4b60c0830185613245565b614d5860e0830184613245565b9998505050505050505050565b5f81905092915050565b5f614d7982613af6565b614d838185614d65565b9350614d938185602086016131c6565b80840191505092915050565b5f614daa8284614d6f565b91508190509291505056fea2646970667358221220e33108f3e34377b69d0b9bee3546a4fda78e0b61fc8f59e9df93e1f1d5f6bc4e64736f6c63430008150033",
  "immutableReferences": {},
  "source": "// SPDX-License-Identifier: MIT\npragma solidity ^0.8.19;\npragma experimental ABIEncoderV2;\nimport \"./Address.sol\";\n\n// HANDY SHORTCUTS:\n// address(0): 0x0000000000000000000000000000000000000000\n// hash: keccak256(bytes(\"string\"));\n\ninterface LightGTCRFactory {\n    function deploy(\n        address _arbitrator, // Simplifying from IArbitrator (no need for extra type, just using the address)\n        bytes calldata _arbitratorExtraData,\n        address _connectedTCR,\n        string calldata _registrationMetaEvidence,\n        string calldata _clearingMetaEvidence,\n        address _governor,\n        uint256[4] calldata _baseDeposits,\n        uint256 _challengePeriodDuration,\n        uint256[3] calldata _stakeMultipliers,\n        address _relayContract\n    ) external;\n\n    function count() external view returns (uint256);\n    function instances(uint256 _index) external view returns (address);\n}\n\nenum Status {\n    Absent, // The item is not in the registry.\n    Registered, // The item is in the registry.\n    RegistrationRequested, // The item has a request to be added to the registry.\n    ClearingRequested // The item has a request to be removed from the registry.\n}\n\ninterface KlerosList {\n    function addItem(string calldata _item) external payable;\n    function getItemInfo(bytes32 _itemID) external view returns (Status status, uint256 numberOfRequests, uint256 sumDeposit);\n}\n\ninterface IERC20 {\n    function totalSupply() external view returns (uint256);\n    function balanceOf(address account) external view returns (uint256);\n    function transfer(address recipient, uint256 amount) external returns (bool);\n    function allowance(address owner, address spender) external view returns (uint256);\n    function approve(address spender, uint256 amount) external returns (bool);\n    function transferFrom(address sender, address recipient, uint256 amount) external returns (bool);\n\n    function name() external view returns (string memory);\n    function symbol() external view returns (string memory);\n    function decimals() external view returns (uint8);\n\n    function mint(address addr, uint256 num) external;\n}\n\nstruct Organisation { \n    string orgGuid;\n    string name; // See below. Even though data is stored on IPFS, we keep the name on-chain for convenience (manual debugging)\n    string JSONIPFS; // Data about organisation is stored on IPFS\n    address klerosAddress;\n    address payoutWallet;\n    uint256 PVT; // Before the payout wallet is set we accumulate PVT tokens here\n    uint256 NVT;\n    uint256 PVThistorical;\n    uint256 NVThistorical;\n}\n\nstruct Item { // Item can be either a Report or Evaluation\n    string itemGuid;\n    string targetGuid; // If Report: targetGuid is the guid of the org. If Evaluation: targetGuid is the guid of the report\n    uint256 orgIndex;\n    string JSONIPFS;\n    uint256 PVT;\n    uint256 NVT;\n    bool approvedToKlerosAndTokensMinted; // after approval we can mint tokens and set to true\n}\n\n/* \n    THIS WILL LIVE IN THE IPFS STRUCTURE: \n\n    string title;\n    string sourceURL;\n    string fileIPFS;\n    string comments;\n    uint256: startDate;\n    uint256: endDate;\n\n    uint256 PVT;\n    uint256 NVT;\n\n    uint256 SDG1val;\n    uint256 SDG2val;\n    uint256 SDG3val;\n    uint256 SDG4val;\n    uint256 SDG5val;\n    uint256 SDG6val;\n    uint256 SDG7val;\n    uint256 SDG8val;\n    uint256 SDG9val;\n    uint256 SDG10val;\n    uint256 SDG11val;\n    uint256 SDG12val;\n    uint256 SDG13val;\n    uint256 SDG14val;\n    uint256 SDG15val;\n    uint256 SDG16val;\n    uint256 SDG17val;\n\n    string SDG1comment;\n    string SDG2comment;\n    string SDG3comment;\n    string SDG4comment;\n    string SDG5comment;\n    string SDG6comment;\n    string SDG7comment;\n    string SDG8comment;\n    string SDG9comment;\n    string SDG10comment;\n    string SDG11comment;\n    string SDG12comment;\n    string SDG13comment;\n    string SDG14comment;\n    string SDG15comment;\n    string SDG16comment;\n    string SDG17comment;\n*/\n\ncontract BaseX {\n\n    address public admin;\n    IERC20 public PVT;\n    IERC20 public NVT;\n\n    modifier adminOnly() {\n        require(msg.sender == admin, \"Restricted to admin\");\n        _;\n    }\n\n    LightGTCRFactory public klerosFactory;\n    KlerosList public klerosOrganisations; // Global list of organisations (singleton)\n    \n    function initializer(address _klerosFactory, address _klerosOrganisations) public {\n        require(admin == address(0), \"Already initialised\");\n        admin = msg.sender;\n        klerosFactory = LightGTCRFactory(_klerosFactory);\n        klerosOrganisations = KlerosList(_klerosOrganisations);\n    }\n\n    Organisation[] public organisations;\n    uint public organisationsLength;\n\n    Item[] public items;\n    uint public itemsLength;\n\n    mapping (string => string) public guidLookup; // generated on the front-end, need to ensure they are unique\n    mapping (string => uint) public orgGuidToIndex; \n    mapping (string => uint) public itemGuidToIndex;\n\n    modifier newGuid(string memory guid, string memory name) {\n      require(bytes(guidLookup[guid]).length == 0, \"GUID already exists\");\n      guidLookup[guid] = name;\n      _;\n    }\n\n    event OrganisationDeployed(string orgGuid, string name, address klerosAddress);\n    event OrganisationAddedToKleros(string orgGuid, string name, address klerosAddress);\n    event PayoutWalletAssigned(string orgGuid, string name, address payoutWallet);\n    event ItemAdded(string orgGuid, string orgName, string itemGuid, uint itemIndex, string itemName, string itemJSONIPFS, uint PVT, uint NVT);\n    event TokensMinted(string itemGuid, uint PVT, uint NVT);\n\n    function deployOrganisation(string memory orgGuid, string memory name, string memory registrationJSONIPFS, string memory removingJSONIPFS) public newGuid(orgGuid, name) returns (uint256, address) {\n\n        // factory.deploy(\n        //         _arbitrator,\n        //         _arbitratorExtraData,\n        //         _connectedTCR,\n        //         _registrationMetaEvidence,\n        //         _clearingMetaEvidence,\n        //         _governor,\n        //         _baseDeposits,\n        //         _challengePeriodDuration,\n        //         _stakeMultipliers,\n        //         _relayContract\n        //     );\n\n        klerosFactory.deploy(\n            0x1128eD55ab2d796fa92D2F8E1f336d745354a77A,\n            abi.encodePacked(bytes1(uint8(1))),\n            0x0000000000000000000000000000000000000000,\n            registrationJSONIPFS,\n            removingJSONIPFS,\n            // \"/ipfs/QmcLd4ucxkU9TvjTUzKk2u2EzFcNV24UuvxwRq1JMhupmN/reg-meta-evidence.json\",\n            // \"/ipfs/QmaiZUrRtKk1a12mW9zArG7TW1hXBraYB3u6AXwrrVGBH3/clr-meta-evidence.json\",\n            0x85A363699C6864248a6FfCA66e4a1A5cCf9f5567,\n            [uint256(0.05 ether), uint256(0.05 ether), 0, uint256(0.05 ether)],\n            120, // 302400, // ----> for testing purposes we set the time to 120 (2 minutes) as opposed to 3.5 days, this is to test minting tokens after report is approved\n            [uint256(10000), uint256(10000), uint256(20000)],\n            0x0000000000000000000000000000000000000000\n        );\n\n        uint256 count = klerosFactory.count();\n        address deployedOrg = klerosFactory.instances(count - 1);\n\n        // Payout wallet is address(0) because it is not established yet (will be setup later on)\n        Organisation memory organisation = Organisation(orgGuid, name, \"\", deployedOrg, address(0), 0, 0, 0, 0);\n        organisations.push(organisation);\n        orgGuidToIndex[orgGuid] = organisationsLength; // additional mapping for ease of access\n        organisationsLength++;\n\n        emit OrganisationDeployed(orgGuid, name, deployedOrg);\n\n        return (organisationsLength - 1, deployedOrg); // returning index of the organisation and its address\n    }\n\n    // TLDR: the JSONIPFS contains the address of the organisation deployed in the previous step\n    // In order to add organisation to the list we need to know its address\n    // The address is contained inside the JSON that is uploaded to IPFS\n    // It is possible to predict it but it can be problematic: https://github.com/kleros/gtcr/issues/296\n    // For now, it is an acceptable UI / UX hurdle to require 2 transactions (one for deployment, one for adding)\n    // Minor inconvenience: deploying and adding a new organisation will not happen very often \n    function addOrganisationToTheList(uint256 orgIndex, string memory organisationJSONIPFS) public payable {\n        organisations[orgIndex].JSONIPFS = organisationJSONIPFS;\n        klerosOrganisations.addItem{value: msg.value}(organisationJSONIPFS);\n\n        emit OrganisationAddedToKleros(organisations[orgIndex].orgGuid, organisations[orgIndex].name, organisations[orgIndex].klerosAddress);\n    }\n\n    function getOrganisations() public view returns(Organisation[] memory) {\n        return organisations;\n    }\n\n    function getOrganisation(uint256 index) public view returns (Organisation memory) {\n        return organisations[index];\n    }\n\n    function getItems() public view returns(Item[] memory) {\n        return items;\n    }\n\n    function getItem (uint256 index) public view returns (Item memory) {\n        return items[index];\n    }\n\n    // TODO: Account abstraction\n    // Currently, anyone can create an organisation to accrue PVT and NVT tokens\n    // Then the admin can assign wallet to the organisation via face-to-face video call\n    // Of course it is a surface of attack, seeking a better way. Feedback welcome.\n    function assignPayoutWallet(uint256 orgIndex, address payoutWallet) public adminOnly {\n        organisations[orgIndex].payoutWallet = payoutWallet;\n        emit PayoutWalletAssigned(organisations[orgIndex].orgGuid, organisations[orgIndex].name, organisations[orgIndex].payoutWallet);\n    }\n\n    function addItem(string memory itemGuid, string memory itemName, string memory targetGuid, uint256 orgIndex, string memory JSONIPFS, uint256 PVTval, uint256 NVTval) public newGuid(itemGuid, itemName) payable {\n        Item memory item = Item(itemGuid, targetGuid, orgIndex, JSONIPFS, PVTval, NVTval, false);\n        items.push(item);\n        itemGuidToIndex[itemGuid] = itemsLength; // additional mapping for ease of access\n        itemsLength++;\n\n        KlerosList orgitems = KlerosList(organisations[orgIndex].klerosAddress);\n        orgitems.addItem{value: msg.value}(JSONIPFS);\n\n        emit ItemAdded(organisations[orgIndex].orgGuid, organisations[orgIndex].name, itemGuid, itemsLength-1, itemName, JSONIPFS, PVTval, NVTval);\n    }\n\n    // After Kleros challenge process is finished and item is added to the list - we can then mint tokens\n    function mintTokensAfterAdded(uint256 index) public {\n        Item memory item = items[index];\n        // ,, only interested in Status, skipping some data returned from the function that we don't need\n        (Status status,,) = KlerosList(organisations[item.orgIndex].klerosAddress).getItemInfo(keccak256(bytes(item.JSONIPFS))); \n        \n        require(status == Status.Registered, \"Status should be Registered\");\n        require(item.approvedToKlerosAndTokensMinted == false, \"PVT NVT already minted\");\n        require(organisations[item.orgIndex].payoutWallet != address(0), \"Payout wallet not set\");\n\n        item.approvedToKlerosAndTokensMinted = true;\n        organisations[item.orgIndex].PVThistorical += item.PVT;\n        organisations[item.orgIndex].NVThistorical += item.NVT;\n        PVT.mint(organisations[item.orgIndex].payoutWallet, item.PVT * 1 ether);\n        NVT.mint(organisations[item.orgIndex].payoutWallet, item.NVT * 1 ether);\n\n        emit TokensMinted(item.itemGuid, item.PVT, item.NVT);\n    }\n\n    function setupPVTNVT(address PVTaddr, address NVTaddr) public adminOnly {\n        require(address(PVT) == address(0), \"PVT already initialised\");\n        require(address(NVT) == address(0), \"NVT already initialised\");\n        PVT = IERC20(PVTaddr);\n        NVT = IERC20(NVTaddr);\n    }\n\n    // This is in case retrieval of multiple indices is needed: https://ethereum.stackexchange.com/a/151580/2524\n    function multicall(bytes[] calldata data) external view returns (bytes[] memory results) {\n        results = new bytes[](data.length);\n        for (uint256 i = 0; i < data.length; i++) {\n            results[i] = Address.functionStaticCall(address(this), data[i]);\n        }\n        return results;\n    }\n\n    function getNameByGUID(string memory guid) external view returns(string memory) {\n        return guidLookup[guid];\n    }\n    \n}\n",
  "sourcePath": "/Users/m/Kleros/basex-smart-contract/contracts/BaseX.sol",
  "compiler": {
    "name": "solc",
    "version": "0.8.21+commit.d9974bed.Emscripten.clang"
  },
  "schemaVersion": "3.4.14",
  "updatedAt": "2023-09-28T08:08:08.465Z",
  "networkType": "ethereum",
  "devdoc": {
    "errors": {
      "AddressEmptyCode(address)": [
        {
          "details": "There's no code at `target` (it is not a contract)."
        }
      ],
      "FailedInnerCall()": [
        {
          "details": "A call to an address target failed. The target may have reverted."
        }
      ]
    },
    "kind": "dev",
    "methods": {},
    "version": 1
  },
  "userdoc": {
    "kind": "user",
    "methods": {},
    "version": 1
  }
}